:020000040800F2
:10000000A8050020A5010008272200087B20000881
:10001000252200081D080008D32800080000000061
:100020000000000000000000000000003124000873
:100030006109000800000000852200083324000840
:10004000BF010008BF010008BF010008BF01000890
:10005000BF010008BF010008BF010008BF01000880
:10006000BF010008BF010008BF010008BF01000870
:10007000BF010008BF010008BF010008BF01000860
:10008000BF010008BF010008BF010008BF01000850
:10009000BF010008BF010008BF010008BF01000840
:1000A000BF010008BF010008BF010008BF01000830
:1000B000BF0100080000000000000000BF010008B0
:1000C000BF0100080000000000000000BF010008A0
:1000D00000000000BF010008BF0100080000000090
:1000E000BF010008BF010008000000000000000080
:1000F0000000000000000000000000000000000000
:10010000000000000000000000000000BF01000827
:100110000000000000000000BF010008BF0100084F
:10012000BF010008BF010008BF010008BF010008AF
:10013000BF010008000000000000000000000000F7
:10014000BF010008BF010008BF010008BF0100088F
:10015000BF010008BF010008BF010008BF0100087F
:10016000BF010008BF010008BF0100080000000037
:10017000BF010008BF0100080000000000000000EF
:10018000BF010008BF010008BF010008DFF810D060
:1001900000F06CFA00480047E1310008AFF300803E
:1001A000A80500200648804706480047FEE7FEE70E
:1001B000FEE7FEE7FEE7FEE7FEE7FEE7FEE7FEE717
:1001C000FD2400088D0100082DE9F05F05460020A0
:1001D00092469B4688460646814640241BE02846B8
:1001E00041464746224600F06DF853465A46C01A2B
:1001F000914110D311461846224600F054F82D1AAA
:1002000067EB01084F4622460120002100F04BF821
:1002100017EB00094E41201EA4F10104DFDC484623
:1002200031462A46434600F000B830BCBDE8C09FC6
:10023000D2B201E000F8012B491EFBD27047002228
:10024000F6E710B513460A4604461946FFF7F0FFD5
:10025000204610BD00F0004230F000400AD0C10D31
:1002600001F56071C0F3160042EA0151C20840076F
:100270001143704700200146704730B50B460146D8
:1002800000202022012409E021FA02F59D4205D335
:1002900003FA02F5491B04FA02F52844151EA2F1DF
:1002A0000102F1DC30BD202A04DB203A00FA02F121
:1002B000002070479140C2F1200320FA03F3194354
:1002C00090407047202A04DB203A21FA02F00021F6
:1002D000704721FA02F3D040C2F120029140084356
:1002E000194670472DE9FE4F804681EA0300C00F92
:1002F0000C46009021F0004123F00045B8EB0200CD
:10030000A94105D24046214690461C460B4602466E
:1003100023F00040104347D0270DC7F30A00C3F372
:100320000A510290401A019040286BDAC3F313007F
:1003300040F4801B0098924620B10023D2EB030AC0
:1003400063EB0B0B01985946C0F140025046FFF792
:10035000AAFF06460D4650465946019A00F098F904
:1003600010EB08006141002487EA115284EAE77328
:100370001A4340D0009A62B3019A012A4FEA075209
:1003800015DC001B61EB02014FF0004202EA07524C
:10039000CDE90042001C41F5801132462B4600F0A9
:1003A00098F903B000F045B840462146F9E7001B34
:1003B00061EB0201001C41F5801300185B4120181D
:1003C000A2F5001747EB030140EAD570B6196D415D
:1003D00011E06D084FEA360645EAC0754FEA07524C
:1003E000001B61EB0201001C41F5801149084FEA36
:1003F00030000019514132462B4603B000F01CB8C2
:1004000000F058B90098012240000023D0EB02020E
:1004100063EBE073009821464FEAE074B8EB00000C
:1004200061EB0401E9E783F000435BE781F0004101
:1004300058E730BCBDE8C08F30BCBDE8C04FFFF707
:10044000DFBF2DE9FE4F81EA030404F0004421F0F0
:10045000004100944FF0000B23F0004350EA0104E8
:100460005ED052EA03045BD0C3F30A54C1F30A55C9
:100470002C44A4F2F3340194A0FB0254C1F3130101
:1004800041F48011C3F3130343F4801301FB0244CE
:1004900000FB034E840A970A44EA815447EA8357D3
:1004A000A4FB076802958D0A05FB07854FEA932C8C
:1004B00004FB0C542705029D4FEA065847EA1637FD
:1004C000B5EB08056EEB070C870E920E47EA811715
:1004D00042EA8312A7FB0201B6EB0B0164EB0004B6
:1004E0002B0D43EA0C335E1844EB1C50DA465146A0
:1004F000E7FB0201C5F313044FEA0B3343EA14533D
:100500004FEA0432019C43EA0603A4F10C0402946E
:10051000009CCDE900B400F0DCF803B000F003B8B3
:1005200000200146F9E730BCBDE8C08F2DE9F04D51
:1005300081EA030404F0004B21F0004514464FF01B
:10054000000A23F0004150EA050220D054EA0102DB
:100550001DD0C5F30A570246C5F31303C1F31300B8
:10056000C1F30A5640F4801543F48013A7EB060844
:10057000101BD64608F2FD3873EB050002D308F1D4
:10058000010801E092185B41B8F1000F03DA002086
:100590000146BDE8F08D00204FF4801106468446E8
:1005A0000EE0171B73EB050705D3121B63EB050366
:1005B00006434CEA010C49084FEA300092185B41AF
:1005C00050EA0107EDD152EA030012D082EA04009A
:1005D00083EA0501084305D0101BAB4106D2012276
:1005E000002306E000224FF0004302E06FF001021A
:1005F00053101AEB06004CEB085110EB0A0041EBCC
:100600000B01BDE8F04D00F055B8C1F30A52C1F33B
:10061000130140F2FF3341F480119A4202DA0020C4
:100620000146704740F233439A42A2F2334202DC61
:100630005242FFF747BEFFF736BE000030B5041E3A
:1006400071F1000404DB4FF00044404264EB01010F
:10065000141E73F1000405DB1C464FF000435242A8
:1006600063EB0403994208BF904230BD064C074D2E
:1006700006E0E06840F0010394E807009847103472
:10068000AC42F6D3FFF786FD7033000890330008C4
:10069000202A06DBCB17203A41FA02F043EAE07346
:1006A00006E041FA02F3D040C2F120029140084333
:1006B0001946704710B5141E73F1000408DA401C87
:1006C00041F1000192185B411A4301D120F0010071
:1006D00010BD2DE9F04D92469B4611B1B1FA81F261
:1006E00002E0B0FA80F220329046FFF7DCFD0446CB
:1006F0000F4640EA0A0041EA0B0153465A460843B6
:1007000013D0114653EA010019D0C8F140025046F7
:10071000FFF7D8FD05460E46504659464246FFF7BC
:10072000C2FD084305D0012004E020463946BDE85B
:10073000F08D0020054346EAE0762C4337430A98C3
:100740006305E40AA0EB08000022FD0A44EA4754CE
:100750000A3002D500200146E9E701051019694178
:10076000DDE9084500196941BDE8F04DA2E7000048
:10077000F8B50446002000902068816811F0010F50
:1007800041D18168214A11422ED18168D543294047
:10079000491C81601E48806800F0E07000020DD5A1
:1007A0001C481D490068B0FBF1F0401C00EB400004
:1007B000800000E0401E00900028FBD100F09CFD6E
:1007C00006461BE0816811F0010F03D181682940C2
:1007D000491C816000F090FD801B02280ED9206822
:1007E0000068C043C00709D0606D40F0100060652C
:1007F000A06D40F00100A0650120F8BD20680168EF
:10080000C943C907DED10020F8BD00003F000080C9
:100810000003045024000020400D0300FEE77CB5D7
:1008200005460C46002001F0FFFC002001F020FDF1
:100830004FF4FA7000F096F8012001F019FD1E2027
:1008400000F090F8012001F0EFFC684600F03EF85F
:1008500000231A466846815C521C1944D2B2CBB2BE
:10086000042AF8D39DF80400984219D1BDF802007B
:10087000F2EE040A40BA00EE100ABDF800100120A2
:10088000B8EE400A49BA80EE201A00EE101AB8EE0F
:10089000400A85ED001A80EE201A84ED001A7CBD16
:1008A00000207CBD084A10B5506000205180012412
:1008B00004FA00F30B4201D0107010BD401CC0B20E
:1008C0001028F5D310BD0000000000202DE9F041F4
:1008D000064600242746282000F044F801F0BCFC1E
:1008E0000028FBD001F0B8FC0028FBD11F254FF0F9
:1008F000010800BF01F0B0FC0028FBD0282000F068
:1009000031F801F0A9FC10B108FA05F0044301F038
:10091000A3FC0028FBD16D1E6DB2002DEADA07257D
:1009200001F09AFC0028FBD0282000F01BF801F011
:1009300093FC18B108FA05F03843C7B201F08CFCFB
:100940000028FBD16D1E6DB2002DE9DA200E30704B
:10095000200C7070200AB070F4703771BDE8F0811F
:10096000704700000449054A0968B1FBF2F14143B0
:10097000491EFDD27047000024000020C0C62D0093
:100980002DE9F84F00270446009790F85000DFF853
:10099000B0930D46B846012811D0012684F8506066
:1009A000206801F075FB60B1606D40F0200060656B
:1009B0005FF0010784F85080384600F0D7B9022074
:1009C000FBE769680C20052912D8022907D0032902
:1009D00007D0042907D0052907D0062107E0686061
:1009E00006E0122103E0182101E04FF480716960F4
:1009F000D5E90021236800EA91101844036B01F047
:100A00001F014FF01F0C0CFA01FCC2F3846223EAB1
:100A10000C038A4013430363206801F039FB8246CC
:100A2000206801F031FB5AEA00001DD1AA6829684C
:100A3000206801F039FB20686969C268C2F3C1020D
:100A4000520091402A69042A0FD000EB82002B68E3
:100A5000026EDFF8F0C203F0F84302EA0C020B4327
:100A60001A4342F00041016672E0002101F006FBEA
:100A7000400320684FF0000172D001F0FFFA90FAB5
:100A8000A0F0B0FA80F1286842036ED090FAA0F08E
:100A9000B0FA80F0814204D100221146206801F0B2
:100AA00012FB0121206801F0E9FA400320684FF0B1
:100AB00001015DD001F0E2FA90FAA0F0B0FA80F105
:100AC0002868420359D090FAA0F0B0FA80F0814231
:100AD00004D100220121206801F0F5FA02212068EA
:100AE00001F0CCFA400320684FF0020148D001F039
:100AF000C5FA90FAA0F0B0FA80F12868420344D019
:100B000090FAA0F0B0FA80F0814204D100220221D4
:100B1000206801F0D8FA0321206801F0AFFA400301
:100B200020684FF0030133D001F0A8FA90FAA0F04A
:100B3000B0FA80F1286842032FD090FAA0F0B0FA02
:100B400080F0814204D100220321206801F0BBFA29
:100B50002068816811F0010F22D0ACE000E004E0D1
:100B600001F08CFAC0F384618DE7C0F3846091E7F3
:100B700001F084FAC0F38461A2E7C0F38460A6E7C1
:100B800001F07CFAC0F38461B7E7C0F38460BBE78F
:100B900001F074FAC0F38461CCE7C0F38460D0E75D
:100BA0002A7B296850F8B03FC1F3120C23EA0C03EA
:100BB00002F0180C644A22FA0CF20A401343036054
:100BC000E968494577D1286841031CD090FAA0F123
:100BD000B1FA81F1491C01F01F0109294FEA4031A6
:100BE00032D8002912D000BF90FAA0F1B1FA81F1F9
:100BF00001F1010101F01F0106FA01F609D100BF60
:100C0000C0F3846109E0C0F38461E3E7C0F3846169
:100C1000EEE790FAA0F1B1FA81F101F1010101F0E2
:100C20001F0146EA816102D1C0F3846003E090FABB
:100C3000A0F0B0FA80F000F1010000F01F0000EB1E
:100C4000400041EA005132E000290ED090FAA0F1B4
:100C5000B1FA81F101F1010101F01F0106FA01F67B
:100C600006D100BFC0F3846106E0C0F38461F1E700
:100C700090FAA0F1B1FA81F101F1010101F01F0137
:100C800046EA816102D1C0F3846003E090FAA0F0EB
:100C9000B0FA80F000F1010000F01F002B4A00EBD9
:100CA000400002EB005041EA000141F00071AA68E7
:100CB000206801F0F9F926482A6802423FF47AAE2A
:100CC00024488168244D254B01F0E071AA421BD1D4
:100CD0000D0219D422689A427FF46CAE826841F406
:100CE000000122F0E0720A4382601D481D4900683D
:100CF000B0FBF1F0401C00EB4000800000E0401E23
:100D000000900028FBD155E6174DAA4207D1CD012E
:100D100005D422689A42F6D141F080710AE06FF062
:100D20000045EA42EFD14A02EDD422689A42EAD164
:100D300041F48001826822F0E0720A43826039E661
:100D400000007F4000F0FF03FFFF0700000020FECF
:100D50000000088000030450000052C70000045047
:100D600024000020400D0300000084CB18BCBDE827
:100D7000E08F0068006C7047F8B54FF00005040084
:100D80002E46009502D0606D10B107E00120F8BD3D
:100D9000204600F0C9F8A66584F850602068816894
:100DA000C1F3407119B18168574A114081602068D0
:100DB0008168C1F3007189B98168544A114041F0DA
:100DC00080518160524853490068B0FBF1F0400007
:100DD000801C00E0401E00900028FBD12068816844
:100DE000C1F3007141B9616D41F010016165A16D00
:100DF00041F00101A165012501F04AF9616DC906C3
:100E000000D430B1606D40F01000606501252846C7
:100E1000F8BD606D20F4807040F0020060652068CD
:100E2000806810F0010F0BD13B48806810F0010F73
:100E300006D13A486168826822F47C120A438260D3
:100E4000E168606B627E0843A16841EA4231084371
:100E500094F8201040EA0140012904D1A18C304AC5
:100E600002EB41410843A16A29B101F47071E26AC1
:100E7000014342EA01002168CA682A4B1A40024332
:100E8000CA60206801F004F90646206801F0FCF809
:100E9000304315D1207E94F83010800340EA4100A1
:100EA0002168CA6844F202039A430243CA6094F874
:100EB000380001280CD02068016921F0010101618E
:100EC000206901282068016B21F00F0111D013E087
:100ED000D4E90F010843D4E91112114308432168F2
:100EE0000A6940F2FC739A43104340F00100086124
:100EF000E6E7E269521E11430163606D20F00200D3
:100F000040F00100606582E7C0FFFF5FC0FFFF7F28
:100F100024000020400D0300000004500003045092
:100F20000000FEFF07C0F0FF10B586B00446142194
:100F30006846FFF784F91149206888421BD11048A0
:100F4000C16C41F40051C164C16C01F400510591C0
:100F5000C16C41F00101C164C06C694600F0010040
:100F60000590102000900B200190002002904FF07F
:100F7000904000F0B5F806B010BD0000000004502D
:100F8000001002402DE9F041044640690E46082851
:100F90000AD02068C068C00708D0606D40F020000B
:100FA00060650120BDE8F081082500E0042500F01F
:100FB000A3F9074614E0701C12D000F09DF9C01B85
:100FC000B04200D866B920680068284208D1606D38
:100FD00040F004006065002084F850000320E1E741
:100FE000206800682842E6D0606D40F400706065BB
:100FF000206801F051F880B1607E70B92068006807
:1010000000070AD5606D20F480706065606DC004D3
:1010100003D4606D40F0010060652068C168082D50
:1010200005D0490401D40C2101600020BAE7082151
:10103000FAE7000010B50446006801F029F810B185
:101040000221084610BD94F8500001280CD0012060
:1010500084F850002046FFF78BFB01004FF00000A2
:1010600004D084F85000ECE7022010BD626D40F619
:1010700001639A4342F480726265626DD20404D5C2
:10108000A26D22F00602A26500E0A06523681C2282
:101090001A6084F850002068C268920105D5626D1C
:1010A00022F4005242F4805262658268024B1A4078
:1010B000121D8260C5E70000C0FFFF7F70B50446C7
:1010C00000F01AF90546601C02D004480078044478
:1010D00000F012F9401BA042FAD370BD18000020A6
:1010E0002DE9F04FDFF8E091002301270326A9F155
:1010F000040B85B00F2509F1040AABF1040EDBE007
:1011000007FA03FC12EA0C027ED00C7904F0030407
:10111000012C01D0022C20D1846800945C0006FAD6
:1011200004F80494009C24EA08040094D1F80C808C
:10113000049C08FA04F8009C48EA0408C0F80880F7
:10114000446824EA0C0491F804C0CCF3001C0CFAA7
:1011500003FC4CEA040CC0F804C00C79E443A40777
:101160000DD0D0F80CC04FEA430806FA08F42CEA78
:10117000040C8C6804FA08F444EA0C04C4600C798A
:1011800004F00304022C19D1DC0800EB840402945F
:10119000246A4FEA437C4FEADC6CCDF810C005FAB4
:1011A0000CFC24EA0C04D1F81080DDF810C008FA19
:1011B0000CF848EA0408029CC4F8208004684FEA4E
:1011C000430806FA08FC24EA0C0491F804C00CF069
:1011D000030C0CFA08FC4CEA040CC0F800C04C6884
:1011E00014F4403F67D0394CD4F860C04CF0010C87
:1011F000C4F860C0246E23F0030C04F001040094D2
:10120000334C6444029400E055E0A4684FEA837CC8
:101210004FEA1C7805FA08FC24EA0C04B0F1904F60
:1012200006D0DFF8B0C0604505D14FF0010C0BE0EF
:101230004FF0000C08E0DFF8A0C0604502D14FF08D
:10124000020C01E04FF0070C0CFA08FC4CEA040C0D
:10125000029CC4F808C0D9F80040CC46D1F80480FC
:1012600094435FEAC82800D51443CCF80040DAF86C
:101270000040D446D1F8048094435FEA882800D522
:101280001443CCF80040DBF80040DC46D1F8048081
:1012900094435FEA883800D51443CCF80040DEF868
:1012A0000040F446D1F8048094435FEAC83800D582
:1012B0001443CCF800405B1C0C682246DC407FF4F1
:1012C0001FAF05B000F00AB808040140001002404A
:1012D00000000140000400480008004830BCBDE8A0
:1012E000C08F0069084000D0012070470AB18161B9
:1012F00070478162704700000148806870470000B5
:10130000180000200248816802781144816070470B
:101310001800002010B50024032000F063F800201E
:1013200000F008F808B1012401E000F025F820469B
:1013300010BD000070B50E4E05460024307898B1FF
:101340004FF47A71B1FBF0F00A490968B1FBF0F093
:1013500000F0B4FD40B9102D06D200222946501EDF
:1013600000F020F8756000E00124204670BD000008
:101370001800002024000020094808B5016E41F043
:1013800001010166016E01F001010091816D41F0E2
:1013900080518165806D00F08050009008BD000094
:1013A00000100240F0B40E4B1B680C46C3F302233E
:1013B000C3F10705042D00D90425191D072901D201
:1013C000002300E0DB1E012606FA05F1491E21403C
:1013D00099409E40761E16403143F0BC01F08EBA13
:1013E0000CED00E0064900F0070208684FF6FF0325
:1013F000184040EA0220034A10430860704700008A
:101400000CED00E00000FA051649B0F5007F086811
:10141000C0F3412009D0022805D0086820F4C0603C
:1014200040F480600860002070470128FBD0086805
:1014300020F4C06040F4007008600B48322200685D
:1014400050430A4AB0FBF2F0401C00E0401E4A69DB
:10145000520501D50028F9D148694005E3D503209C
:1014600070470000007000402400002040420F0040
:101470000248006800F4C06070470000007000403F
:101480000248016841F480710160704700700040BB
:101490000248016841F004010160704700100240F9
:1014A0002DE9F84F0446002700889C4D3E46000574
:1014B00015D5E06B60B1B0F5000F04D0B0F5400F6A
:1014C0002BD001270AE0E86840F48030E86024E08F
:1014D0000021201D00F0D8FE07001ED03E462068E7
:1014E000800338D5A86D4FF00008C00009D4A86D5E
:1014F00040F08050A865A86D4FF0010800F08050C2
:101500000090DFF81CA2DAF8001041F48071CAF8EC
:101510000010FFF7F1FE814610E0D5F88800E16B7E
:1015200020F440000843C5F88800D8E7FFF7E4FE40
:10153000A0EB0900022801D9032704E0DAF8000033
:10154000C005F3D5EFB33E46B8F1000F03D0A86D48
:1015500020F08050A8652078C00707D0D5F8880013
:10156000216A20F003000843C5F88800207880072E
:1015700007D5D5F88800616A20F00C000843C5F84B
:1015800088002078800607D5D5F88800A16A20F465
:1015900040600843C5F888002088800507D5D5F845
:1015A0008800616B20F440200843C5F8880020883B
:1015B000400509D5D5F88800A16B20F440100843F8
:1015C00000E02EE0C5F888002078400607D5D5F861
:1015D0008800E16A20F440500843C5F8880020885C
:1015E000C00507D5D5F88800216B20F440300843AA
:1015F000C5F8880020884FF0006780044FF08068AD
:101600004ED5D5F88800216C20F040600843C5F81D
:101610008800206CB8423BD1E86840F48010E86054
:101620003EE0D5F8900010F4407014D0216D814256
:1016300011D0D5F89000D5F8901020F4407041F406
:101640008031C5F89010D5F8901021F48031C5F89C
:101650009010C5F89000C00711D0FFF74DFE074667
:1016600041F2883907E000BFFFF746FEC11B49453C
:1016700001D9032668E7D5F890008007F4D5D5F89E
:101680009000216D20F440700843C5F890005BE79E
:10169000404505D10121201D00F0F6FD00B10646B0
:1016A0002068400317D5D5F88800616C20F04060B1
:1016B0000843C5F88800606CB84204D1E86840F47B
:1016C0008010E86007E0404505D10121201D00F0B1
:1016D000DBFD00B106462088400411D5D5F888000E
:1016E000A16C20F040500843C5F88800A06CB0F110
:1016F000805F05D10221201D00F0C6FD00B1064625
:101700002088000406D555F8880FE16C20F0804051
:1017100008432860304600F005B800000010024081
:101720000070004018BCBDE8E08F00002DE9F047D4
:101730000F4605006BD0494E306800F00700B842F4
:1017400009D2306820F0070038433060306800F07C
:101750000700B8425BD12878414C80070AD5A868B9
:10176000A16801F0F001884204D9A16821F0F001DC
:101770000143A1602878C0072CD06868032811D0E5
:10178000022812D0216898B1490500293FDAA168E2
:1017900021F003010143A160FFF7AEFD804641F255
:1017A000883910E021688901EFE721688903ECE7B7
:1017B0008907EAE7FFF7A0FDA0EB0801494502D938
:1017C0000320BDE8F087A068696800F00C00B0EB6A
:1017D000810FEFD1287880070AD5A868A16801F0A9
:1017E000F001884204D2A16821F0F0010143A16018
:1017F000306800F00700B8420BD9306820F00700CD
:1018000038433060306800F00700B84201D0012052
:10181000D7E72878400705D5A068E96820F4E0609C
:101820000843A0602878000706D5A068296920F43D
:10183000605040EAC100A06000F03EF8A168094A8B
:10184000C1F30311515C01F01F01C8400649086053
:1018500006480068BDE8F047FFF76CBD0020024075
:101860000010024028330008240000201C00002043
:101870000548064900688968054AC1F30221515CA0
:1018800001F01F01C84070472400002000100240F2
:10189000683300080548064900688968054AC1F3AD
:1018A000C221515C01F01F01C84070472400002094
:1018B000001002406833000870B52549002318461F
:1018C0008A68CC6812F00C0204F00306214C4FEA3F
:1018D000640509D00C2A05D0042A32D0082A00D188
:1018E000284670BD012E10D10B681B0704D4D1F817
:1018F0009430C3F3032302E00B68C3F30313164EC3
:1019000056F82330DAB10C2AEBD1C86800F0030096
:10191000022818D0032818D01846CA68CB68C2F32A
:101920000212C3F306234343521CB3FBF2F2C8680E
:10193000C0F34160401C4000B2FBF0F070BD18469F
:1019400070BD204670BD2046E7E72846E5E7000069
:10195000001002400024F400383300082DE9F84359
:1019600004006FD0FA4DA86800F00C06E86800F09B
:1019700003072078C00664D576B10C2E01D1012F63
:101980000AD0A069002828687AD040F001002860B9
:10199000FFF7B2FC80465DE02868800702D5A069A9
:1019A0000028DED0216A2868000703D5286800F0E7
:1019B000F00004E0D5F89400F02202EA1010814211
:1019C00016D9084600F0F6FC00283BD1286840F004
:1019D000080028602868216A20F0F0000843286089
:1019E0006868E16920F47F4040EA0120686016E001
:1019F000286840F0080028602868216A20F0F0007C
:101A0000084328606868E16920F47F4040EA0120CB
:101A1000686026B9206A00F0CDFC0028D5D1FFF718
:101A20004BFFA968CB4AC1F30311515C01F01F01C0
:101A3000C840C9490860C9480068FFF77BFC002816
:101A40007ED12EE0CAE000BFFFF756FCA0EB0800F5
:101A5000022876D828688007F6D5286840F0080064
:101A600028602868216A20F0F00008432860686830
:101A7000E16920F47F4040EA0120686011E0FFE75F
:101A800020F001002860FFF737FC804606E000BF29
:101A9000FFF732FCA0EB08000228DAD8286880079C
:101AA000F6D42078C00740D0082E18D00C2E01D1D3
:101AB000032F14D06068B0F5803F17D0B0F5A02F89
:101AC000286817D020F480302860286820F480200F
:101AD00028606068E0B1FFF70FFC804614E02868DA
:101AE000800322D56068002878D01EE0286840F482
:101AF0008030EDE740F480202860F7E7FFF7FCFB3B
:101B0000A0EB08006428A4D828688003F6D50CE070
:101B1000FFF7F2FB804605E0FFF7EEFBA0EB0800C5
:101B2000642896D828688003F6D4207880073BD5AF
:101B3000042E11D00C2E01D1022F0DD0E06801E04F
:101B4000AAE1FFE0002828681ED040F480702860D9
:101B5000FFF7D2FB07460CE0286840050CD5E0688B
:101B60000028C1D008E000BFFFF7C6FBC01B022859
:101B700093D828684005F7D56868217C20F0F85094
:101B800040EA016068600FE020F480702860FFF791
:101B9000B3FB074605E000BFFFF7AEFBC01B022802
:101BA000B1D828684005F7D42078000729D56069A6
:101BB0000028D5F8940012D040F00100C5F8940038
:101BC000FFF79AFB074604E0FFF796FBC01B0228CD
:101BD00099D8D5F894008007F6D512E02BE120F0D3
:101BE0000100C5F89400FFF787FB074605E000BF3A
:101BF000FFF782FBC01B022885D8D5F89400800728
:101C0000F6D42078400766D5A86D0027C00008D418
:101C1000A86D40F08050A865A86D012700F08050A5
:101C200000904F480168C90512D40168814641F40B
:101C300080710160FFF760FB804605E0FFF75CFB09
:101C4000A0EB080002287DD8D9F80000C005F5D522
:101C5000A068012816D00528D5F8900017D020F0EC
:101C60000100C5F89000D5F8900020F0040000BFF6
:101C7000C5F89000A06841F28839C0B1FFF73CFB7D
:101C800080460FE0D5F8900040F00100F0E740F00A
:101C90000400C5F89000F5E7FFF72EFBA0EB080164
:101CA00049454FD8D5F890008007F5D50EE0FFF7ED
:101CB00023FB804606E000BFFFF71EFBA0EB0801F8
:101CC00049453FD8D5F890008007F5D41FB1A86DDD
:101CD00020F08050A8652078800628D5606A00280A
:101CE000D5F8980012D040F00100C5F89800FFF731
:101CF00003FB074605E000BFFFF7FEFAC01B022802
:101D000020D8D5F898008007F6D510E020F0010023
:101D1000C5F89800FFF7F0FA074604E0FFF7ECFA81
:101D2000C01B02280ED8D5F898008007F6D4A06A08
:101D3000F0B3022816D00C2E7DD0286820F08070D9
:101D4000286000E0A7E0FFF7D7FA0446A6E000000D
:101D50000010024028330008240000201C0000204E
:101D600000700040E868E26A00F00301914228D167
:101D7000216B00F0700209011039914221D1626B90
:101D800000F4FE41B1EB022F1BD194F8382000F093
:101D90007841B1EBC26F14D1A18F00F4C0024908A1
:101DA0004905A1F5001191420BD194F8401000E0D3
:101DB0006AE04908490600F0C060A1F10071814263
:101DC0004BD00C2E73D02868400170D4286820F0C6
:101DD00080702860FFF790FA064604E0FFF78CFA5F
:101DE000801B022857D828688001F7D4F4E90B013A
:101DF0006FF00F0202EB01110843218A52044908D7
:101E000002EB4151A26841EA02210843217D4FF0D3
:101E10007E42490802EB41610843217B40EAC160F0
:101E2000E968244A11400843E860286840F080705F
:101E30002860E86800E03AE040F08070E860FFF772
:101E40005BFA044605E000BFFFF756FA001B0228C4
:101E500021D828688001F7D527E02868800124D49C
:101E6000286840F080702860E86840F08070E86082
:101E7000FFF742FA044604E0FFF73EFA001B02288F
:101E800009D828688001F7D50FE000BFFFF734FAC2
:101E9000001B022802D90320BDE8F88328688001CE
:101EA000F4D4E86804490840E8600020F4E7012021
:101EB000F2E700008C809D01FCFFEEFE10B5401E95
:101EC000B0F1807F01D3012010BD4FF0E0246061AC
:101ED0000F21601700F012FD0020A0610720206193
:101EE000002010BD10B5040002D0A06F10B107E0B3
:101EF000012010BD002084F87400204600F026F870
:101F00002420A0672068016821F0010101602046BB
:101F100000F08EFB0128ECD0606A10B1204600F082
:101F2000F5FA2068416821F4904141602068816899
:101F300021F02A0181602068016841F001010160FF
:101F40002046BDE8104000F045BB0000F0B587B06A
:101F5000044614216846FEF772F918492068884241
:101F600029D11748816D41F400318165816D01F4FB
:101F700000310591C16C41F00101C164C06C0225C2
:101F800000F001000590042000268DE86100032484
:101F90000720CDE903404FF0904769463846FFF7E8
:101FA0009FF8A803CDE90005CDE9026469460494D1
:101FB0003846FFF795F807B0F0BD00000044004038
:101FC000001002402DE9F8430446806F1F46164674
:101FD0000D4620284FD1CDB1C6B194F87400012828
:101FE00049D0012084F874004FF00008C4F88080C4
:101FF0002120A067FFF780F9A4F850608146A4F87B
:102000005260A068B0F5805F03D004E00120BDE815
:10201000F883206928B12E465FF0000584F87480AB
:1020200010E00026FAE78021204600F0EFFBB8B967
:10203000C6B116F8010B21680885B4F85200401E9D
:10204000A4F85200B4F852004B464FF0000200973B
:102050000028E8D14FF04001204600F0D7FB30B116
:102060000320D4E735F8020BC0F30800E3E7202093
:10207000A0670020CBE70220C9E7FEE700EB810064
:10208000006E00F0F84070478068C0F3C0007047F1
:102090008068C0F380007047C06810F4406F01D0C2
:1020A0000020704701207047042303EAD15310B584
:1020B00018444369C1F3045107248C40A3438A4068
:1020C0001343436110BD00EB8100016E21F000411C
:1020D000114301667047000030B587B0182168468B
:1020E000FEF7ADF8184817490024C0E900148460D1
:1020F0000425C460C0E90445047601214176C1612C
:1021000080F820408462C46280F83040446380F8E4
:102110003840FEF731FE08B172B6FEE70B4800907A
:102120000620CDE901047F200594CDE90305694629
:102130000548FEF725FC002801D072B6FEE707B07F
:1021400030BD000000000450280000200002B0252F
:10215000F0B587B014216846FEF771F82148C16CCC
:1021600041F00401C164C16C01F004010591C16C2E
:1021700041F00101C164C16C01F001010591C16C24
:1021800041F00201C164C06C4FF0904600F00200C3
:102190000590002220213046FFF7A8F8124F0022B8
:1021A00008213846FFF7A2F800248820CDE9000472
:1021B000694630460294FEF793FF202000900125E7
:1021C000CDE90154694630460394FEF789FF0820A3
:1021D0000090CDE90154694638460394FEF780FF2C
:1021E00007B0F0BD00100240000400480C4810B5D4
:1021F0000A4901604FF4E1314160002181600C2205
:10220000C160C0E904128161C16101624162FFF7EE
:1022100069FE002801D072B6FEE710BD0044004000
:102220008C000020FEE7FEE700B50A4A85B0518821
:10223000009100210391029110B1012803D003E025
:102240000120019000E0019169465068FEF748FFC7
:1022500005B000BD00000020044810B5418840686A
:10226000FFF73FF800F0010010BD00000000002063
:10227000020003484188406800D00122FFF736B8C9
:1022800000000020704700002DE9F041444C054655
:102290008846E0680026810728680DD0E16801F0D3
:1022A0000301814216D1A8B1E0686968C0F3021049
:1022B000401C88420ED120E0012804D0022805D01D
:1022C000032807D108E02168890701E02168490552
:1022D000002907DB01265FE02168890302D4216819
:1022E0004903F5E7E1686A686FF00F0321F07301B5
:1022F00003EB021211430143E160206820F080608B
:102300002060FEF7F9FF074605E000BFFEF7F4FF87
:10231000C01B022837D820680001F7D4B8F1000F9D
:1023200018D0B8F1010F1DD0287D4FF07E41400834
:1023300001EB4060A96840EA01202169194A114077
:1023400008432061206840F080602060FEF7D4FFE1
:1023500007461AE0A868297B000240EAC1602169AB
:10236000114AECE7288A1149400801EB4050A9685E
:1023700040EA012021690E4AE1E700BFFEF7BCFFF9
:10238000C01B022801D9032606E020680001F5D50C
:102390002069A969084320613046BDE8F08100004A
:1023A00000100240FF80FFF9FF80FF070000E0FF00
:1023B000FF809FFFF8B51C4D06460024A86DC000A5
:1023C00002D5FFF755F80DE0A86D40F08050A865E4
:1023D000A86D00F080500090FFF74AF8A96D21F039
:1023E0008051A965B0F5007F04D0802E07D94FF049
:1023F00003040AE0802E08D9A02E01D804E001D100
:10240000022402E0702E00D101240848016821F066
:10241000070121430160006800F00700A04201D0DD
:102420000120F8BD0020F8BD00100240002002404D
:102430007047FEF767BF00002DE9F041ACB04421C2
:1024400015A8FDF7FCFE142126A8FDF7F8FE54217F
:102450006846FDF7F4FEFFF713F8274850F8901F81
:1024600021F0180101601420012515901795002412
:102470006020CDE91C401B954FF00208CDE91F8577
:102480000727CDE923781026CDF89480CDE9215691
:1024900015A8FFF763FA08B172B6FEE70F20269081
:1024A0000320CDE927042994012126A82A94FFF7C7
:1024B0003DF908B172B6FEE744F202000090C00692
:1024C000129001950011CDE906800994CDE90478B8
:1024D000CDE902566846FEF7E3FF08B172B6FEE7A3
:1024E0004FF40070FEF790FF08B172B6FEE7FEF7FA
:1024F000CFFF2CB0BDE8F081001002400248016817
:1025000041F470010160704788ED00E090F82410FC
:10251000C90706D001684A68836A22F400321A4368
:102520004A6090F82410890706D501684A68C36A92
:1025300022F480321A434A6090F82410490706D5E5
:1025400001684A68036B22F480221A434A6090F8BB
:102550002410090706D501684A68436B22F400423B
:102560001A434A6090F82410C90606D501688A68A3
:10257000836B22F480521A438A6090F824108906F3
:1025800006D501688A68C36B22F400521A438A6038
:1025900090F82410490611D501684A68036C22F4AA
:1025A00080121A434A60016CB1F5801F06D10168A0
:1025B0004A68436C22F4C0021A434A6090F824101F
:1025C000090606D501684A68806C22F4002202439D
:1025D0004A607047F8B500260446C0F88060FEF7F0
:1025E0008BFE0546206800686FF07E47000708D51F
:1025F0002B4600224FF400112046009700F006F908
:1026000060B92068006840070AD52B4600224FF4C5
:1026100080012046009700F0F9F808B10320F8BDCA
:102620002020A067E067266684F874600020F8BD6B
:102630002DE9F0410446016880682269E66910438B
:102640006269002532431043694B0A68694E324083
:1026500002430A6020684168E26821F44051114356
:1026600041602168A069994201D0226A10438A68BA
:1026700022F4306202438A605F4927685F488F42D4
:102680000DD1D0F8880010F0030006D0012838D012
:10269000022834D0032821D135E001211FE0584918
:1026A0008F420BD1D0F8880010F00C0025D0042800
:1026B00027D0082823D00C2810D124E09F420DD128
:1026C000D0F8880010F4406017D0B0F5806F18D0B3
:1026D000B0F5006F13D0B0F5406F14D01021494A07
:1026E00000264FF400409F422FD171B102290FD034
:1026F00004290FD0082973D10FE00021EFE7022150
:10270000EDE70421EBE70821E9E7FFF7B1F803E083
:10271000104602E0FFF7D0F8F0B3626802EB420126
:1027200081425DD8B0EB023F5AD8010E0302500837
:10273000181871410023FDF747FD334AA0F5407199
:1027400091424DD82168C8604BE0E3694FF6EF77BE
:10275000834228D1092943D2DFE801F005080B4262
:102760000D4242421000FFF783F806E0FFF792F8AF
:1027700003E0104602E0FFF79FF868B1410060688F
:1027800001EB5001B1FBF0F0A0F11001B94227D8E4
:102790004FF6F071014000E023E0C0F34200014336
:1027A0002068C1601DE009291AD2DFE801F00508A0
:1027B0000B190D1919191000FFF75AF806E0FFF769
:1027C00069F803E0104602E0FFF776F848B1616867
:1027D00000EB5100B0FBF1F0A0F11001B94205D9B6
:1027E000012566662846A666BDE8F08180B2A9E7A5
:1027F00000800040F369FFEF003801400010024004
:10280000004400400024F400FFFC0F002DE9F047D5
:102810009A4617460E4604464FF000094FF020082E
:10282000089D4AE0681C48D0FEF766FDA0EB0A0050
:10283000A8422AD84DB32068016849073DD5C06930
:10284000C043000539D421684FF400600862206855
:1028500050E8001F21F4D07140E80012002AF6D1A0
:102860002068083050E8001F21F0010140E8001204
:10287000002AF5D1C4F87880C4F87C80C4F8808040
:1028800084F874900320BDE8F087216851E8000FB8
:1028900020F4D07041E80002002AF6D12068083008
:1028A00050E8001F21F0010140E80012002AF5D194
:1028B000C4F87880C4F87C80E2E72068C06936EA12
:1028C000000004D00020B842ACD00020DBE701209B
:1028D000F9E7FEE70FB4084B10B504A902AA039864
:1028E00000F0F2F8044602A9002000F073FC204634
:1028F00010BC5DF814FB0000D53100080907090E73
:10290000002804DB00F1E02080F80014704700F09C
:102910000F0000F1E02080F8141D704702E008C8A5
:10292000121F08C1002AFAD170477047002001E049
:1029300001C1121F002AFBD1704700002DE9FF5F83
:1029400082B00021DDE90430020DDDF840B0034320
:1029500018D044F61050A2F2FF32424315141198D9
:1029600001281FD0A5EB0B00401C5FEA000A4FF0C6
:1029700000064E4FDFF83891B046504615D5CAF1E3
:10298000000413E0119801244AA3012801D16FEA41
:102990000B010298119AC0E90031C0E9024206B069
:1029A00000F08EB8CBF10000DFE704460021404A7A
:1029B000491842EB0450CDE9001012E0E00707D0BF
:1029C00032463B4640464946FDF73BFD8046894638
:1029D00032463B4610461946FDF733FD06460F4684
:1029E0006410002CEAD1DDE90401DDE90023BAF12D
:1029F000000F06DAFDF725FD42464B46FDF721FDA7
:102A000005E0FDF793FD42464B46FDF78FFD04467A
:102A10000E460022284BFDF711FE03D84FF0FF3081
:102A2000014607E00022254B20463146FDF75AFCBF
:102A3000FDF7EBFD102409E0002C0ADB0A2200233D
:102A4000FDF7C2FB039B30321A55641E50EA0102A7
:102A5000F2D1641C039AC4F111031444119A012A9F
:102A600003D0012208430DD10AE0084304D000201E
:102A70004FF0110B119072E7A3EB0B056D1E0DE0EB
:102A80005B4504DD4FF0000205F1010504E003DAC7
:102A90004FF00002A5F10105002AECD0029811992F
:102AA000C0E90231C0E9004579E7000000001440A8
:102AB0000000F03F300000000000F0430000E03F65
:102AC00030BCBDE8C09F00002DE9FF4F95B09A468D
:102AD000884606460025EEE1252877D100242746C2
:102AE000F94A0121039400E0044316F8013F203B1A
:102AF00001FA03F01042F7D130782A2811D06FF094
:102B00002F033078A0F13002092A16D8039A44F036
:102B1000020402EB820203EB42021044761C039093
:102B2000EFE758F8042B0392002A03DA504244F4EA
:102B30000054039044F00204761C30782E2816D1FD
:102B400016F8010F44F004042A280DD06FF02F026C
:102B50003078A0F13003092B09D807EB870302EB8B
:102B60004303C718761CF3E758F8047B761C3078CB
:102B70006C280FD006DC4C2817D068280DD06A28A6
:102B800014D104E0742810D07A280FD10DE044F459
:102B900000140AE044F4801401E044F44014727814
:102BA000824202D104F58014761C761C30786628A7
:102BB0000BD013DC582877D009DC002875D04528C5
:102BC000F6D04628F4D047281AD193E118E06328BC
:102BD00035D0642879D0652812D18BE1702873D064
:102BE00008DC6728F1D069286FD06E280DD06F28D7
:102BF00006D1ACE073282CD0752874D0782853D037
:102C00005246179990476D1C54E1C4F302500228B4
:102C100009D003280DD0D8F8001004280DD00D607D
:102C200008F1040846E1D8F80010EA17C1E900529B
:102C3000F6E7D8F800100D80F2E70D70F0E718F80D
:102C4000041B8DF8001000208DF80100EB460120D8
:102C500003E058F804BB4FF0FF3061074FF000016C
:102C600002D40DE009F101018946B9420FDA81452C
:102C7000F8DB1BF809100029F4D108E009F1010183
:102C800089468142FADB1BF809100029F6D1039826
:102C90005346A0EB090721463846179A00F083FAFD
:102CA000284400EB090507E044E008E10DE01BF8CB
:102CB000010B524617999047B9F10109F7D25346D3
:102CC00021463846179AF2E039E00A21C4F302524D
:102CD0004FF0000B0091022A06D058F8040BC117E0
:102CE000032A09D00AE023E008F1070020F00702D8
:102CF000F2E80201904605E000B2C117042A01D1B2
:102D000040B2C117002906DA0A460021404261EBB1
:102D100002012D2202E0220504D52B228DF8042089
:102D2000012203E0E20701D02022F7E7914657E0B5
:102D30000A2100E010214FF0000B00910BE0102160
:102D40004FF0000B44F004040827009103E0082032
:102D50004FF0000B0090C4F30252022A05D058F83D
:102D6000040B0021032A08D008E008F1070020F036
:102D70000702F2E80201904603E080B2042A00D183
:102D8000C0B24FF0000922072AD53278702A07D046
:102D9000DDF800C08CF0100C5CEA0B0C05D00EE0E6
:102DA00040228DF80420012208E050EA010306D0F9
:102DB00030238DF804308DF8052002229146009BC7
:102DC00083F0080353EA0B030AD150EA010201D150
:102DD000620705D530228DF804204FF001097F1ECF
:102DE0003278582A04D039A20C920CAA02920BE035
:102DF0003BA2F9E75B46009AFDF7E6F90C9B9B5C6A
:102E0000029A521E0292137050EA0102F2D1029805
:102E100004A9081A00F1200B600702D524F48034BD
:102E200000E001275F4502DDA7EB0B0000E000207A
:102E300000EB0B01009003984944401A0390E00313
:102E400006D453462146179A039800F0ACF905447E
:102E5000002706E001A85246C05D179990476D1CF7
:102E60007F1C4F45F6DBE0030CD553462146179AED
:102E7000039800F098F9054404E030205246179971
:102E800090476D1C0099481E00900029F5DC08E071
:102E90000298029952460078491C0291179990476E
:102EA0006D1CBBF10001ABF1010BF1DC5BE100F04B
:102EB00068F90544761C307800287FF40DAE19B00F
:102EC000284600F05BB90000092801003031323398
:102ED0003435363738396162636465660000000056
:102EE0003031323334353637383941424344454640
:102EF00000000000600700D4062708F1070020F05A
:102F00000700F0E80223804603F0004C5FEA0C0063
:102F100001D097A009E0200501D596A005E0E007C3
:102F200001D095A001E0AFF24C001390307823F06F
:102F3000004365280CD006DC452809D046281DD062
:102F400047287FD13BE0662818D067287AD136E041
:102F50000021112F01DB112000E0781CCDE90001D8
:102F600004A90CA8FFF7EAFCDDE90D010C9A4FF06B
:102F7000000B07F10109109200914EE04FF0004064
:102F80000097CDE9011004A90CA8FFF7D7FCDDE9F3
:102F90000D020C9B0F994FF0000B9146109300927D
:102FA00011B9791C00EB0109B7EB090003D4C0F19A
:102FB000FF3B07F10109A9EB0700019042E0012F57
:102FC00000DA01270021112F01DD112000E0384631
:102FD000CDE9000104A90CA8FFF7B0FCDDE90D0163
:102FE0000C9A00914FF0000BB946109221070FD4B4
:102FF000009A4A4503DA914601E0A9F10109B9F1C5
:10300000010F05DD109AA9F10101515C3029F4D0BE
:10301000B84202DA10F1040F03DA0121CDE9011000
:1030200010E0002803DC8344A9EB000102E0411C0E
:10303000494500DD8946A0EB0B00401C01904FF094
:1030400000400290200705D40198484502DB4FF06C
:10305000FF30019000208DF84B0002980DF14B07D6
:10306000B0F1004F25D002200C902B200D9002983B
:1030700000280CDA404202902D200D9007E00A2132
:103080000298FDF7FAF83031029007F8011D0C990B
:10309000481E0C900029F2DC02980028EFD1791E1E
:1030A0000D980870307800F0200040F0450007F8D7
:1030B000020D11A8C01BC01D02901398007800B12A
:1030C000012000EB0901019801EBE0710298014435
:1030D0000398401A401E0390E00306D4534621464D
:1030E000179A039800F05FF805441398007818B118
:1030F0005246179990476D1CE00323D5534621464D
:10310000179A039800F04FF805441BE0BBF1000F3D
:1031100007DB0098584504DD1098179910F80B004C
:1031200001E0179930205246904701980BF1010BAE
:10313000401E05F10105019004D12E205246179939
:1031400090476D1CB9F10001A9F10109DEDC05E031
:1031500017F8010B5246179990476D1C0299481EAB
:1031600002900029F4DC53462146179A03989EE604
:103170002D0000002B0000002000000030BCBDE846
:10318000C08F2DE9F041044600251E4617468804ED
:1031900004D405E039462020B0476D1C641EF9D5E3
:1031A0002846BDE8F0812DE9F041044600251E4681
:1031B0009046C80301D5302700E02027880404D5B5
:1031C00005E041463846B0476D1C641EF9D52846D7
:1031D000BDE8F0810A68531C0B6010707047000056
:1031E0001CB5FEF797F8FFF727F9FEF7B1FFFEF7DA
:1031F000FDFFFEF771FF2F48FDF71CFF4FF09044D5
:1032000020212046FDF74EFBA0462B4C4FF47A7749
:1032100029490C31081FFDF702FB90B1E068FDF76A
:1032200019F805460E46A068FDF714F841EC100B9E
:10323000CDE9005653EC102B20A12C48FFF74AFB98
:1032400003E02BA12948FFF745FB28490A23322236
:10325000A1F1B600FEF7B6FE39461648FDF792FE1C
:103260001448FDF786FDC2B22048227024A13238EE
:10327000FFF730FB1D490A2332393222A1F18400C5
:10328000FEF7A0FE08214046FEF72BF802466060DC
:1032900016481FA13230FFF71DFB14490A233231B3
:1032A0003222A1F1E800FEF78DFE3846FDF706FF59
:1032B000AEE7000028000020080000200D0A546539
:1032C0006D7020284329203D0920252E31660D0AE6
:1032D00048756D69646974792028252529203D0980
:1032E00020252E316625250D0A0000004201002010
:1032F0000D0A435243204572726F72210D0A00007D
:10330000536F696C20565743203D2025640D0A00F9
:103310004C6967687420446574656374696F6E20D6
:103320003D2025640D0A00000000000000000000A0
:103330000102030406070809A0860100400D0300EE
:10334000801A060000350C0040420F0080841E00E9
:1033500000093D0000127A000024F40000366E01DE
:103360000048E801006CDC020000000001020304D8
:103370009033000800000020280000001C290008ED
:10338000B833000828000020800500002C29000820
:10339000000000000000000000000000000000002D
:1033A000000000000000000001000000100000000C
:0833B0000000000000093D00CF
:040000050800018D61
:00000001FF
